{"abi":[{"type":"constructor","inputs":[],"stateMutability":"nonpayable"},{"type":"function","name":"buyTicket","inputs":[],"outputs":[],"stateMutability":"payable"},{"type":"function","name":"changeQuota","inputs":[{"name":"newquota","type":"uint256"}],"outputs":[],"stateMutability":"nonpayable"},{"type":"function","name":"destroy","inputs":[],"outputs":[],"stateMutability":"nonpayable"},{"type":"function","name":"numRegistrants","inputs":[],"outputs":[{"name":"","type":"uint256"}],"stateMutability":"view"},{"type":"function","name":"organizer","inputs":[],"outputs":[{"name":"","type":"address"}],"stateMutability":"view"},{"type":"function","name":"quota","inputs":[],"outputs":[{"name":"","type":"uint256"}],"stateMutability":"view"},{"type":"function","name":"refundTicket","inputs":[{"name":"recipient","type":"address"},{"name":"amount","type":"uint256"}],"outputs":[],"stateMutability":"nonpayable"},{"type":"function","name":"registrantsPaid","inputs":[{"name":"","type":"address"}],"outputs":[{"name":"","type":"uint256"}],"stateMutability":"view"},{"type":"event","name":"Deposit","inputs":[{"name":"_from","type":"address","indexed":false},{"name":"_amount","type":"uint256","indexed":false}],"anonymous":false},{"type":"event","name":"Refund","inputs":[{"name":"_to","type":"address","indexed":false},{"name":"_amount","type":"uint256","indexed":false}],"anonymous":false}],"bytecode":{"object":"0x608060405234801561001057600080fd5b5060008054600160a060020a0319163317815560646003556002556103388061003a6000396000f3006080604052600436106100715760003560e01c63ffffffff16806313381fbf1461007657806361203265146100a9578063705099b9146100da57806383197ef014610100578063a977c71e14610115578063cebe09c91461012d578063ec3a6f7314610142578063edca914c14610157575b600080fd5b34801561008257600080fd5b50610097600160a060020a036004351661015f565b60408051918252519081900360200190f35b3480156100b557600080fd5b506100be610171565b60408051600160a060020a039092168252519081900360200190f35b3480156100e657600080fd5b506100fe600160a060020a0360043516602435610180565b005b34801561010c57600080fd5b506100fe610255565b34801561012157600080fd5b506100fe600435610278565b34801561013957600080fd5b50610097610298565b34801561014e57600080fd5b5061009761029e565b6100fe6102a4565b60016020526000908152604090205481565b600054600160a060020a031681565b60008054600160a060020a0316331461019857610250565b600160a060020a0383166000908152600160205260409020548214156102505750308031821161025057604051600160a060020a0384169083156108fc029084906000818181858888f1505060408051600160a060020a03881681526020810187905281517fbb28353e4598c3b9199101a66e0989549b659a59a54d2c27fbb183f1932c8e6d95509081900390910192509050a1600160a060020a038316600090815260016020526040812055600280546000190190555b505050565b600054600160a060020a031633141561027657600054600160a060020a0316ff5b565b600054600160a060020a0316331461028f57610295565b60038190555b50565b60035481565b60025481565b600354600254106102b457600080fd5b33600081815260016020818152604092839020349081905560028054909301909255825193845283015280517fe1fffcc4923d04b559f4d29a8bfc6cda04eb5b0d3c460751c2402c5c5cc9109c9281900390910190a15600a165627a7a72305820c6990d71fb6e71de662a8f6f9a2a64d097f4fb26751e6c6cc9cbc5246b0455740029","linkReferences":{}},"methodIdentifiers":{"buyTicket()":"edca914c","changeQuota(uint256)":"a977c71e","destroy()":"83197ef0","numRegistrants()":"ec3a6f73","organizer()":"61203265","quota()":"cebe09c9","refundTicket(address,uint256)":"705099b9","registrantsPaid(address)":"13381fbf"},"id":0}