{
  "contractName": "Conference",
  "abi": [
    {
      "inputs": [],
      "stateMutability": "nonpayable",
      "type": "constructor"
    },
    {
      "anonymous": false,
      "inputs": [
        {
          "indexed": true,
          "internalType": "address",
          "name": "_from",
          "type": "address"
        },
        {
          "indexed": false,
          "internalType": "uint256",
          "name": "_amount",
          "type": "uint256"
        }
      ],
      "name": "Deposit",
      "type": "event"
    },
    {
      "anonymous": false,
      "inputs": [
        {
          "indexed": true,
          "internalType": "address",
          "name": "_to",
          "type": "address"
        },
        {
          "indexed": false,
          "internalType": "uint256",
          "name": "_amount",
          "type": "uint256"
        }
      ],
      "name": "Refund",
      "type": "event"
    },
    {
      "inputs": [],
      "name": "numRegistrants",
      "outputs": [
        {
          "internalType": "uint256",
          "name": "",
          "type": "uint256"
        }
      ],
      "stateMutability": "view",
      "type": "function",
      "constant": true
    },
    {
      "inputs": [],
      "name": "organizer",
      "outputs": [
        {
          "internalType": "address",
          "name": "",
          "type": "address"
        }
      ],
      "stateMutability": "view",
      "type": "function",
      "constant": true
    },
    {
      "inputs": [],
      "name": "quota",
      "outputs": [
        {
          "internalType": "uint256",
          "name": "",
          "type": "uint256"
        }
      ],
      "stateMutability": "view",
      "type": "function",
      "constant": true
    },
    {
      "inputs": [
        {
          "internalType": "address",
          "name": "",
          "type": "address"
        }
      ],
      "name": "registrantsPaid",
      "outputs": [
        {
          "internalType": "uint256",
          "name": "",
          "type": "uint256"
        }
      ],
      "stateMutability": "view",
      "type": "function",
      "constant": true
    },
    {
      "inputs": [],
      "name": "buyTicket",
      "outputs": [],
      "stateMutability": "payable",
      "type": "function",
      "payable": true
    },
    {
      "inputs": [
        {
          "internalType": "uint256",
          "name": "newQuota",
          "type": "uint256"
        }
      ],
      "name": "changeQuota",
      "outputs": [],
      "stateMutability": "nonpayable",
      "type": "function"
    },
    {
      "inputs": [
        {
          "internalType": "address",
          "name": "recipient",
          "type": "address"
        },
        {
          "internalType": "uint256",
          "name": "amount",
          "type": "uint256"
        }
      ],
      "name": "refundTicket",
      "outputs": [],
      "stateMutability": "nonpayable",
      "type": "function"
    },
    {
      "inputs": [],
      "name": "destroy",
      "outputs": [],
      "stateMutability": "nonpayable",
      "type": "function"
    }
  ],
  "bytecode": "0x608060405234801561001057600080fd5b50336000806101000a81548173ffffffffffffffffffffffffffffffffffffffff021916908373ffffffffffffffffffffffffffffffffffffffff1602179055506064600381905550600060028190555061095e806100706000396000f3fe608060405260043610610098576000357c010000000000000000000000000000000000000000000000000000000090048063a977c71e1161006b578063a977c71e146101cb578063cebe09c914610206578063ec3a6f7314610231578063edca914c1461025c57610098565b806313381fbf1461009d5780636120326514610102578063705099b91461015957806383197ef0146101b4575b600080fd5b3480156100a957600080fd5b506100ec600480360360208110156100c057600080fd5b81019080803573ffffffffffffffffffffffffffffffffffffffff169060200190929190505050610266565b6040518082815260200191505060405180910390f35b34801561010e57600080fd5b5061011761027e565b604051808273ffffffffffffffffffffffffffffffffffffffff1673ffffffffffffffffffffffffffffffffffffffff16815260200191505060405180910390f35b34801561016557600080fd5b506101b26004803603604081101561017c57600080fd5b81019080803573ffffffffffffffffffffffffffffffffffffffff169060200190929190803590602001909291905050506102a3565b005b3480156101c057600080fd5b506101c961057a565b005b3480156101d757600080fd5b50610204600480360360208110156101ee57600080fd5b8101908080359060200190929190505050610659565b005b34801561021257600080fd5b5061021b610708565b6040518082815260200191505060405180910390f35b34801561023d57600080fd5b5061024661070e565b6040518082815260200191505060405180910390f35b610264610714565b005b60016020528060005260406000206000915090505481565b6000809054906101000a900473ffffffffffffffffffffffffffffffffffffffff1681565b6000809054906101000a900473ffffffffffffffffffffffffffffffffffffffff1673ffffffffffffffffffffffffffffffffffffffff163373ffffffffffffffffffffffffffffffffffffffff1614610348576040517f08c379a00000000000000000000000000000000000000000000000000000000081526004018080602001828103825260248152602001806108da6024913960400191505060405180910390fd5b80600160008473ffffffffffffffffffffffffffffffffffffffff1673ffffffffffffffffffffffffffffffffffffffff16815260200190815260200160002054146103fc576040517f08c379a00000000000000000000000000000000000000000000000000000000081526004018080602001828103825260178152602001807f496e76616c6964207469636b657420707572636861736500000000000000000081525060200191505060405180910390fd5b803073ffffffffffffffffffffffffffffffffffffffff16311015610489576040517f08c379a000000000000000000000000000000000000000000000000000000000815260040180806020018281038252601f8152602001807f496e73756666696369656e742062616c616e636520666f7220726566756e640081525060200191505060405180910390fd5b8173ffffffffffffffffffffffffffffffffffffffff166108fc829081150290604051600060405180830381858888f193505050501580156104cf573d6000803e3d6000fd5b508173ffffffffffffffffffffffffffffffffffffffff167fbb28353e4598c3b9199101a66e0989549b659a59a54d2c27fbb183f1932c8e6d826040518082815260200191505060405180910390a26000600160008473ffffffffffffffffffffffffffffffffffffffff1673ffffffffffffffffffffffffffffffffffffffff16815260200190815260200160002081905550600260008154809291906001900391905055505050565b6000809054906101000a900473ffffffffffffffffffffffffffffffffffffffff1673ffffffffffffffffffffffffffffffffffffffff163373ffffffffffffffffffffffffffffffffffffffff161461061f576040517f08c379a000000000000000000000000000000000000000000000000000000000815260040180806020018281038252602b8152602001806108fe602b913960400191505060405180910390fd5b6000809054906101000a900473ffffffffffffffffffffffffffffffffffffffff1673ffffffffffffffffffffffffffffffffffffffff16ff5b6000809054906101000a900473ffffffffffffffffffffffffffffffffffffffff1673ffffffffffffffffffffffffffffffffffffffff163373ffffffffffffffffffffffffffffffffffffffff16146106fe576040517f08c379a000000000000000000000000000000000000000000000000000000000815260040180806020018281038252602781526020018061088d6027913960400191505060405180910390fd5b8060038190555050565b60035481565b60025481565b6003546002541061078d576040517f08c379a00000000000000000000000000000000000000000000000000000000081526004018080602001828103825260168152602001807f526567697374726174696f6e20697320636c6f7365640000000000000000000081525060200191505060405180910390fd5b600034116107e6576040517f08c379a00000000000000000000000000000000000000000000000000000000081526004018080602001828103825260268152602001806108b46026913960400191505060405180910390fd5b34600160003373ffffffffffffffffffffffffffffffffffffffff1673ffffffffffffffffffffffffffffffffffffffff168152602001908152602001600020819055506002600081548092919060010191905055503373ffffffffffffffffffffffffffffffffffffffff167fe1fffcc4923d04b559f4d29a8bfc6cda04eb5b0d3c460751c2402c5c5cc9109c346040518082815260200191505060405180910390a256fe4f6e6c7920746865206f7267616e697a65722063616e206368616e6765207468652071756f74615469636b6574207072696365206d7573742062652067726561746572207468616e207a65726f4f6e6c7920746865206f7267616e697a65722063616e20697373756520726566756e64734f6e6c7920746865206f7267616e697a65722063616e2064657374726f792074686520636f6e7472616374a2646970667358221220d86074111a9f325dac605d9b370dc935b8ac9f0b2b176df9ac30382e752f3ee164736f6c63430006000033",
  "source": "// SPDX-License-Identifier: MIT\npragma solidity ^0.6.0;\n\ncontract Conference {\n    address public organizer;\n    mapping(address => uint) public registrantsPaid;\n    uint public numRegistrants;\n    uint public quota;\n\n    event Deposit(address indexed _from, uint _amount);\n    event Refund(address indexed _to, uint _amount);\n\n    constructor() public {\n        organizer = msg.sender;\n        quota = 100;\n        numRegistrants = 0;\n    }\n\n    function buyTicket() public payable {\n        require(numRegistrants < quota, \"Registration is closed\");\n        require(msg.value > 0, \"Ticket price must be greater than zero\");\n        registrantsPaid[msg.sender] = msg.value;\n        numRegistrants++;\n        emit Deposit(msg.sender, msg.value);\n    }\n\n    function changeQuota(uint newQuota) public {\n        require(msg.sender == organizer, \"Only the organizer can change the quota\");\n        quota = newQuota;\n    }\n\n    function refundTicket(address recipient, uint amount) public {\n        require(msg.sender == organizer, \"Only the organizer can issue refunds\");\n        require(registrantsPaid[recipient] == amount, \"Invalid ticket purchase\");\n        require(address(this).balance >= amount, \"Insufficient balance for refund\");\n        payable(recipient).transfer(amount);\n        emit Refund(recipient, amount);\n        registrantsPaid[recipient] = 0;\n        numRegistrants--;\n    }\n\n    function destroy() public {\n        require(msg.sender == organizer, \"Only the organizer can destroy the contract\");\n        selfdestruct(payable(organizer));\n    }\n}",
  "sourcePath": "/usr/bin/conference/contracts/Conference.sol",
  "compiler": {
    "name": "solc",
    "version": "0.6.0+commit.26b70077.Emscripten.clang"
  },
  "schemaVersion": "3.4.16",
  "updatedAt": "2024-11-12T08:07:41.597Z",
  "networkType": "ethereum",
  "devdoc": {
    "methods": {}
  },
  "userdoc": {
    "methods": {}
  }
}