{
  "contractName": "Conference",
  "abi": [
    {
      "inputs": [],
      "stateMutability": "nonpayable",
      "type": "constructor"
    },
    {
      "anonymous": false,
      "inputs": [
        {
          "indexed": true,
          "internalType": "address",
          "name": "_from",
          "type": "address"
        },
        {
          "indexed": false,
          "internalType": "uint256",
          "name": "_amount",
          "type": "uint256"
        }
      ],
      "name": "Deposit",
      "type": "event"
    },
    {
      "anonymous": false,
      "inputs": [
        {
          "indexed": true,
          "internalType": "address",
          "name": "_to",
          "type": "address"
        },
        {
          "indexed": false,
          "internalType": "uint256",
          "name": "_amount",
          "type": "uint256"
        }
      ],
      "name": "Refund",
      "type": "event"
    },
    {
      "inputs": [],
      "name": "numRegistrants",
      "outputs": [
        {
          "internalType": "uint256",
          "name": "",
          "type": "uint256"
        }
      ],
      "stateMutability": "view",
      "type": "function",
      "constant": true
    },
    {
      "inputs": [],
      "name": "organizer",
      "outputs": [
        {
          "internalType": "address",
          "name": "",
          "type": "address"
        }
      ],
      "stateMutability": "view",
      "type": "function",
      "constant": true
    },
    {
      "inputs": [],
      "name": "quota",
      "outputs": [
        {
          "internalType": "uint256",
          "name": "",
          "type": "uint256"
        }
      ],
      "stateMutability": "view",
      "type": "function",
      "constant": true
    },
    {
      "inputs": [
        {
          "internalType": "address",
          "name": "",
          "type": "address"
        }
      ],
      "name": "registrantsDefaultRecipient",
      "outputs": [
        {
          "internalType": "address",
          "name": "",
          "type": "address"
        }
      ],
      "stateMutability": "view",
      "type": "function",
      "constant": true
    },
    {
      "inputs": [
        {
          "internalType": "address",
          "name": "",
          "type": "address"
        }
      ],
      "name": "registrantsPaid",
      "outputs": [
        {
          "internalType": "uint256",
          "name": "",
          "type": "uint256"
        }
      ],
      "stateMutability": "view",
      "type": "function",
      "constant": true
    },
    {
      "inputs": [],
      "name": "ticketPrice",
      "outputs": [
        {
          "internalType": "uint256",
          "name": "",
          "type": "uint256"
        }
      ],
      "stateMutability": "view",
      "type": "function",
      "constant": true
    },
    {
      "inputs": [
        {
          "internalType": "address",
          "name": "recipient",
          "type": "address"
        }
      ],
      "name": "buyTicket",
      "outputs": [],
      "stateMutability": "payable",
      "type": "function",
      "payable": true
    },
    {
      "inputs": [
        {
          "internalType": "uint256",
          "name": "newQuota",
          "type": "uint256"
        }
      ],
      "name": "changeQuota",
      "outputs": [],
      "stateMutability": "nonpayable",
      "type": "function"
    },
    {
      "inputs": [
        {
          "internalType": "uint256",
          "name": "newPrice",
          "type": "uint256"
        }
      ],
      "name": "changeTicketPrice",
      "outputs": [],
      "stateMutability": "nonpayable",
      "type": "function"
    },
    {
      "inputs": [],
      "name": "refundTicket",
      "outputs": [],
      "stateMutability": "nonpayable",
      "type": "function"
    },
    {
      "inputs": [],
      "name": "destroy",
      "outputs": [],
      "stateMutability": "nonpayable",
      "type": "function"
    }
  ],
  "bytecode": "0x608060405234801561001057600080fd5b50336000806101000a81548173ffffffffffffffffffffffffffffffffffffffff021916908373ffffffffffffffffffffffffffffffffffffffff160217905550606460048190555060006003819055506509184e72a000600581905550610da38061007d6000396000f3fe6080604052600436106100b9576000357c010000000000000000000000000000000000000000000000000000000090048063713a3c9311610081578063713a3c931461027157806383197ef014610288578063a5f8cdbb1461029f578063a977c71e146102e3578063cebe09c91461031e578063ec3a6f7314610349576100b9565b80631209b1f6146100be57806313381fbf146100e95780634630a0ee1461014e5780635d9f0f5914610189578063612032651461021a575b600080fd5b3480156100ca57600080fd5b506100d3610374565b6040518082815260200191505060405180910390f35b3480156100f557600080fd5b506101386004803603602081101561010c57600080fd5b81019080803573ffffffffffffffffffffffffffffffffffffffff16906020019092919050505061037a565b6040518082815260200191505060405180910390f35b34801561015a57600080fd5b506101876004803603602081101561017157600080fd5b8101908080359060200190929190505050610392565b005b34801561019557600080fd5b506101d8600480360360208110156101ac57600080fd5b81019080803573ffffffffffffffffffffffffffffffffffffffff169060200190929190505050610441565b604051808273ffffffffffffffffffffffffffffffffffffffff1673ffffffffffffffffffffffffffffffffffffffff16815260200191505060405180910390f35b34801561022657600080fd5b5061022f610474565b604051808273ffffffffffffffffffffffffffffffffffffffff1673ffffffffffffffffffffffffffffffffffffffff16815260200191505060405180910390f35b34801561027d57600080fd5b50610286610499565b005b34801561029457600080fd5b5061029d6108fc565b005b6102e1600480360360208110156102b557600080fd5b81019080803573ffffffffffffffffffffffffffffffffffffffff1690602001909291905050506109db565b005b3480156102ef57600080fd5b5061031c6004803603602081101561030657600080fd5b8101908080359060200190929190505050610bd3565b005b34801561032a57600080fd5b50610333610c82565b6040518082815260200191505060405180910390f35b34801561035557600080fd5b5061035e610c88565b6040518082815260200191505060405180910390f35b60055481565b60016020528060005260406000206000915090505481565b6000809054906101000a900473ffffffffffffffffffffffffffffffffffffffff1673ffffffffffffffffffffffffffffffffffffffff163373ffffffffffffffffffffffffffffffffffffffff1614610437576040517f08c379a000000000000000000000000000000000000000000000000000000000815260040180806020018281038252602e815260200180610d40602e913960400191505060405180910390fd5b8060058190555050565b60026020528060005260406000206000915054906101000a900473ffffffffffffffffffffffffffffffffffffffff1681565b6000809054906101000a900473ffffffffffffffffffffffffffffffffffffffff1681565b6000809054906101000a900473ffffffffffffffffffffffffffffffffffffffff1673ffffffffffffffffffffffffffffffffffffffff163373ffffffffffffffffffffffffffffffffffffffff161461053e576040517f08c379a0000000000000000000000000000000000000000000000000000000008152600401808060200182810382526024815260200180610cb66024913960400191505060405180910390fd5b6000600260003373ffffffffffffffffffffffffffffffffffffffff1673ffffffffffffffffffffffffffffffffffffffff16815260200190815260200160002060009054906101000a900473ffffffffffffffffffffffffffffffffffffffff169050600073ffffffffffffffffffffffffffffffffffffffff168173ffffffffffffffffffffffffffffffffffffffff161415610645576040517f08c379a00000000000000000000000000000000000000000000000000000000081526004018080602001828103825260188152602001807f4e6f2064656661756c7420726563697069656e7420736574000000000000000081525060200191505060405180910390fd5b6000600160008373ffffffffffffffffffffffffffffffffffffffff1673ffffffffffffffffffffffffffffffffffffffff168152602001908152602001600020549050600081116106ff576040517f08c379a00000000000000000000000000000000000000000000000000000000081526004018080602001828103825260178152602001807f496e76616c6964207469636b657420707572636861736500000000000000000081525060200191505060405180910390fd5b803073ffffffffffffffffffffffffffffffffffffffff1631101561078c576040517f08c379a000000000000000000000000000000000000000000000000000000000815260040180806020018281038252601f8152602001807f496e73756666696369656e742062616c616e636520666f7220726566756e640081525060200191505060405180910390fd5b8173ffffffffffffffffffffffffffffffffffffffff166108fc829081150290604051600060405180830381858888f193505050501580156107d2573d6000803e3d6000fd5b508173ffffffffffffffffffffffffffffffffffffffff167fbb28353e4598c3b9199101a66e0989549b659a59a54d2c27fbb183f1932c8e6d826040518082815260200191505060405180910390a26000600160008473ffffffffffffffffffffffffffffffffffffffff1673ffffffffffffffffffffffffffffffffffffffff16815260200190815260200160002081905550600360008154809291906001900391905055506000600260008473ffffffffffffffffffffffffffffffffffffffff1673ffffffffffffffffffffffffffffffffffffffff16815260200190815260200160002060006101000a81548173ffffffffffffffffffffffffffffffffffffffff021916908373ffffffffffffffffffffffffffffffffffffffff1602179055505050565b6000809054906101000a900473ffffffffffffffffffffffffffffffffffffffff1673ffffffffffffffffffffffffffffffffffffffff163373ffffffffffffffffffffffffffffffffffffffff16146109a1576040517f08c379a000000000000000000000000000000000000000000000000000000000815260040180806020018281038252602b815260200180610d15602b913960400191505060405180910390fd5b6000809054906101000a900473ffffffffffffffffffffffffffffffffffffffff1673ffffffffffffffffffffffffffffffffffffffff16ff5b60045460035410610a54576040517f08c379a00000000000000000000000000000000000000000000000000000000081526004018080602001828103825260168152602001807f526567697374726174696f6e20697320636c6f7365640000000000000000000081525060200191505060405180910390fd5b6005543414610aae576040517f08c379a000000000000000000000000000000000000000000000000000000000815260040180806020018281038252603b815260200180610cda603b913960400191505060405180910390fd5b34600160003373ffffffffffffffffffffffffffffffffffffffff1673ffffffffffffffffffffffffffffffffffffffff1681526020019081526020016000208190555080600260003373ffffffffffffffffffffffffffffffffffffffff1673ffffffffffffffffffffffffffffffffffffffff16815260200190815260200160002060006101000a81548173ffffffffffffffffffffffffffffffffffffffff021916908373ffffffffffffffffffffffffffffffffffffffff1602179055506003600081548092919060010191905055503373ffffffffffffffffffffffffffffffffffffffff167fe1fffcc4923d04b559f4d29a8bfc6cda04eb5b0d3c460751c2402c5c5cc9109c346040518082815260200191505060405180910390a250565b6000809054906101000a900473ffffffffffffffffffffffffffffffffffffffff1673ffffffffffffffffffffffffffffffffffffffff163373ffffffffffffffffffffffffffffffffffffffff1614610c78576040517f08c379a0000000000000000000000000000000000000000000000000000000008152600401808060200182810382526027815260200180610c8f6027913960400191505060405180910390fd5b8060048190555050565b60045481565b6003548156fe4f6e6c7920746865206f7267616e697a65722063616e206368616e6765207468652071756f74614f6e6c7920746865206f7267616e697a65722063616e20697373756520726566756e64735469636b6574207072696365206d75737420626520657175616c20746f206f722067726561746572207468616e20746865207365742070726963654f6e6c7920746865206f7267616e697a65722063616e2064657374726f792074686520636f6e74726163744f6e6c7920746865206f7267616e697a65722063616e206368616e676520746865207469636b6574207072696365a2646970667358221220328bc21fd5dc78c0b8adf9fd8a6e3184b66967b4f051b0a48e8b3c9364bec9c564736f6c63430006000033",
  "source": "// SPDX-License-Identifier: MIT\npragma solidity ^0.6.0;\n\ncontract Conference {\n    address public organizer;\n    mapping(address => uint) public registrantsPaid;\n    mapping(address => address) public registrantsDefaultRecipient;\n    uint public numRegistrants;\n    uint public quota;\n    uint public ticketPrice; // 新增票价变量\n\n    event Deposit(address indexed _from, uint _amount);\n    event Refund(address indexed _to, uint _amount);\n\n    constructor() public {\n        organizer = msg.sender;\n        quota = 100;\n        numRegistrants = 0;\n        ticketPrice = 0.00001 ether; // 设置默认票价为1 ether，可以根据需要修改\n    }\n\n    function buyTicket(address recipient) public payable {\n        require(numRegistrants < quota, \"Registration is closed\");\n        require(msg.value == ticketPrice, \"Ticket price must be equal to or greater than the set price\");\n        registrantsPaid[msg.sender] = msg.value;\n        registrantsDefaultRecipient[msg.sender] = recipient; // 设置默认收获地址\n        numRegistrants++;\n        emit Deposit(msg.sender, msg.value);\n    }\n\n    function changeQuota(uint newQuota) public {\n        require(msg.sender == organizer, \"Only the organizer can change the quota\");\n        quota = newQuota;\n    }\n\n    function changeTicketPrice(uint newPrice) public {\n        require(msg.sender == organizer, \"Only the organizer can change the ticket price\");\n        ticketPrice = newPrice; // 允许组织者更改票价\n    }\n\n    function refundTicket() public {\n        require(msg.sender == organizer, \"Only the organizer can issue refunds\");\n        address recipient = registrantsDefaultRecipient[msg.sender];\n        require(recipient != address(0), \"No default recipient set\");\n        uint amount = registrantsPaid[recipient];\n        require(amount > 0, \"Invalid ticket purchase\");\n        require(address(this).balance >= amount, \"Insufficient balance for refund\");\n        payable(recipient).transfer(amount);\n        emit Refund(recipient, amount);\n        registrantsPaid[recipient] = 0;\n        numRegistrants--;\n        registrantsDefaultRecipient[recipient] = address(0); // 重置默认收获地址\n    }\n\n    function destroy() public {\n        require(msg.sender == organizer, \"Only the organizer can destroy the contract\");\n        selfdestruct(payable(organizer));\n    }\n}",
  "sourcePath": "/usr/bin/conference/contracts/Conference.sol",
  "compiler": {
    "name": "solc",
    "version": "0.6.0+commit.26b70077.Emscripten.clang"
  },
  "schemaVersion": "3.4.16",
  "updatedAt": "2024-11-19T11:16:25.618Z",
  "networkType": "ethereum",
  "devdoc": {
    "methods": {}
  },
  "userdoc": {
    "methods": {}
  }
}