{
  "contractName": "HotelBooking",
  "abi": [
    {
      "inputs": [],
      "payable": false,
      "stateMutability": "nonpayable",
      "type": "constructor"
    },
    {
      "anonymous": false,
      "inputs": [
        {
          "indexed": true,
          "internalType": "address",
          "name": "_from",
          "type": "address"
        },
        {
          "indexed": false,
          "internalType": "uint256",
          "name": "_amount",
          "type": "uint256"
        }
      ],
      "name": "Booking",
      "type": "event"
    },
    {
      "anonymous": false,
      "inputs": [
        {
          "indexed": true,
          "internalType": "address",
          "name": "_to",
          "type": "address"
        },
        {
          "indexed": false,
          "internalType": "uint256",
          "name": "_amount",
          "type": "uint256"
        }
      ],
      "name": "Refund",
      "type": "event"
    },
    {
      "constant": true,
      "inputs": [],
      "name": "availableRooms",
      "outputs": [
        {
          "internalType": "uint256",
          "name": "",
          "type": "uint256"
        }
      ],
      "payable": false,
      "stateMutability": "view",
      "type": "function"
    },
    {
      "constant": true,
      "inputs": [
        {
          "internalType": "address",
          "name": "",
          "type": "address"
        }
      ],
      "name": "bookingsPaid",
      "outputs": [
        {
          "internalType": "uint256",
          "name": "",
          "type": "uint256"
        }
      ],
      "payable": false,
      "stateMutability": "view",
      "type": "function"
    },
    {
      "constant": true,
      "inputs": [],
      "name": "owner",
      "outputs": [
        {
          "internalType": "address payable",
          "name": "",
          "type": "address"
        }
      ],
      "payable": false,
      "stateMutability": "view",
      "type": "function"
    },
    {
      "constant": true,
      "inputs": [],
      "name": "roomPrice",
      "outputs": [
        {
          "internalType": "uint256",
          "name": "",
          "type": "uint256"
        }
      ],
      "payable": false,
      "stateMutability": "view",
      "type": "function"
    },
    {
      "constant": true,
      "inputs": [
        {
          "internalType": "address",
          "name": "",
          "type": "address"
        }
      ],
      "name": "roomTypesBooked",
      "outputs": [
        {
          "internalType": "uint256",
          "name": "",
          "type": "uint256"
        }
      ],
      "payable": false,
      "stateMutability": "view",
      "type": "function"
    },
    {
      "constant": false,
      "inputs": [
        {
          "internalType": "uint256",
          "name": "roomType",
          "type": "uint256"
        }
      ],
      "name": "bookRoom",
      "outputs": [],
      "payable": true,
      "stateMutability": "payable",
      "type": "function"
    },
    {
      "constant": false,
      "inputs": [],
      "name": "cancelBooking",
      "outputs": [],
      "payable": false,
      "stateMutability": "nonpayable",
      "type": "function"
    },
    {
      "constant": false,
      "inputs": [
        {
          "internalType": "uint256",
          "name": "newPrice",
          "type": "uint256"
        }
      ],
      "name": "changeRoomPrice",
      "outputs": [],
      "payable": false,
      "stateMutability": "nonpayable",
      "type": "function"
    },
    {
      "constant": false,
      "inputs": [],
      "name": "destroy",
      "outputs": [],
      "payable": false,
      "stateMutability": "nonpayable",
      "type": "function"
    }
  ],
  "bytecode": "0x608060405234801561001057600080fd5b50336000806101000a81548173ffffffffffffffffffffffffffffffffffffffff021916908373ffffffffffffffffffffffffffffffffffffffff160217905550606460038190555067016345785d8a0000600481905550610928806100776000396000f3fe6080604052600436106100865760003560e01c8063720da6aa11610059578063720da6aa14610136578063803a1f7d1461019b57806383197ef0146102005780638da5cb5b14610217578063ae3c01761461026e57610086565b806330392ac61461008b5780635f49d3d8146100c6578063635caa7c146100f45780636c0361621461010b575b600080fd5b34801561009757600080fd5b506100c4600480360360208110156100ae57600080fd5b8101908080359060200190929190505050610299565b005b6100f2600480360360208110156100dc57600080fd5b8101908080359060200190929190505050610348565b005b34801561010057600080fd5b50610109610506565b005b34801561011757600080fd5b50610120610745565b6040518082815260200191505060405180910390f35b34801561014257600080fd5b506101856004803603602081101561015957600080fd5b81019080803573ffffffffffffffffffffffffffffffffffffffff16906020019092919050505061074b565b6040518082815260200191505060405180910390f35b3480156101a757600080fd5b506101ea600480360360208110156101be57600080fd5b81019080803573ffffffffffffffffffffffffffffffffffffffff169060200190929190505050610763565b6040518082815260200191505060405180910390f35b34801561020c57600080fd5b5061021561077b565b005b34801561022357600080fd5b5061022c61085a565b604051808273ffffffffffffffffffffffffffffffffffffffff1673ffffffffffffffffffffffffffffffffffffffff16815260200191505060405180910390f35b34801561027a57600080fd5b5061028361087f565b6040518082815260200191505060405180910390f35b6000809054906101000a900473ffffffffffffffffffffffffffffffffffffffff1673ffffffffffffffffffffffffffffffffffffffff163373ffffffffffffffffffffffffffffffffffffffff161461033e576040517f08c379a00000000000000000000000000000000000000000000000000000000081526004018080602001828103825260248152602001806108d06024913960400191505060405180910390fd5b8060048190555050565b6000600354116103c0576040517f08c379a00000000000000000000000000000000000000000000000000000000081526004018080602001828103825260128152602001807f4e6f20726f6f6d7320617661696c61626c65000000000000000000000000000081525060200191505060405180910390fd5b600454341461041a576040517f08c379a00000000000000000000000000000000000000000000000000000000081526004018080602001828103825260238152602001806108ad6023913960400191505060405180910390fd5b34600160003373ffffffffffffffffffffffffffffffffffffffff1673ffffffffffffffffffffffffffffffffffffffff1681526020019081526020016000208190555080600260003373ffffffffffffffffffffffffffffffffffffffff1673ffffffffffffffffffffffffffffffffffffffff16815260200190815260200160002081905550600360008154809291906001900391905055503373ffffffffffffffffffffffffffffffffffffffff167fd8c5b97e3d934327b25930a07c4b7cf4e39573d21cef99a8b879750f659e295e346040518082815260200191505060405180910390a250565b6000600160003373ffffffffffffffffffffffffffffffffffffffff1673ffffffffffffffffffffffffffffffffffffffff168152602001908152602001600020549050600081116105c0576040517f08c379a00000000000000000000000000000000000000000000000000000000081526004018080602001828103825260108152602001807f4e6f20626f6f6b696e6720666f756e640000000000000000000000000000000081525060200191505060405180910390fd5b6000600160003373ffffffffffffffffffffffffffffffffffffffff1673ffffffffffffffffffffffffffffffffffffffff1681526020019081526020016000208190555060036000815480929190600101919050555060003373ffffffffffffffffffffffffffffffffffffffff168260405180600001905060006040518083038185875af1925050503d8060008114610677576040519150601f19603f3d011682016040523d82523d6000602084013e61067c565b606091505b50509050806106f3576040517f08c379a000000000000000000000000000000000000000000000000000000000815260040180806020018281038252600d8152602001807f526566756e64206661696c65640000000000000000000000000000000000000081525060200191505060405180910390fd5b3373ffffffffffffffffffffffffffffffffffffffff167fbb28353e4598c3b9199101a66e0989549b659a59a54d2c27fbb183f1932c8e6d836040518082815260200191505060405180910390a25050565b60045481565b60026020528060005260406000206000915090505481565b60016020528060005260406000206000915090505481565b6000809054906101000a900473ffffffffffffffffffffffffffffffffffffffff1673ffffffffffffffffffffffffffffffffffffffff163373ffffffffffffffffffffffffffffffffffffffff1614610820576040517f08c379a00000000000000000000000000000000000000000000000000000000081526004018080602001828103825260278152602001806108866027913960400191505060405180910390fd5b6000809054906101000a900473ffffffffffffffffffffffffffffffffffffffff1673ffffffffffffffffffffffffffffffffffffffff16ff5b6000809054906101000a900473ffffffffffffffffffffffffffffffffffffffff1681565b6003548156fe4f6e6c7920746865206f776e65722063616e2064657374726f792074686520636f6e74726163745061796d656e74206d75737420626520657175616c20746f20726f6f6d2070726963654f6e6c7920746865206f776e65722063616e206368616e676520726f6f6d207072696365a265627a7a723158200d12a25a9a5f76fe0d59c2c19f5fe292c6e3d798a3e227d7069ef5a98423840664736f6c63430005100032",
  "source": "// SPDX-License-Identifier: MIT\npragma solidity ^ 0.5.16;\n\ncontract HotelBooking {\n    address payable public owner; \n    mapping(address => uint) public bookingsPaid;\n    mapping(address => uint) public roomTypesBooked; // 记录用户预定的房间类型\n    uint public availableRooms;\n    uint public roomPrice; // 房间价格\n\n    event Booking(address indexed _from, uint _amount);\n    event Refund(address indexed _to, uint _amount);\n\n    constructor() public {\n        owner = msg.sender;\n        availableRooms = 100; // 可供预定的房间数\n        roomPrice = 0.1 ether; // 房间价格为0.01 ether\n    }\n\n    function bookRoom(uint roomType) public payable {\n        require(availableRooms > 0, \"No rooms available\");\n        require(msg.value == roomPrice, \"Payment must be equal to room price\");\n\n        bookingsPaid[msg.sender] = msg.value;\n        roomTypesBooked[msg.sender] = roomType; // 用户预定房间类型\n        availableRooms--;\n\n        emit Booking(msg.sender, msg.value);\n    }\n        function cancelBooking() public {\n            uint amount = bookingsPaid[msg.sender];\n            require(amount > 0, \"No booking found\");\n\n            // Reset booking data before refund\n            bookingsPaid[msg.sender] = 0;\n            availableRooms++;\n\n            // Refund the user\n            (bool success, ) = msg.sender.call.value(amount)(\"\");\n            require(success, \"Refund failed\");\n\n            emit Refund(msg.sender, amount);\n        }\n\n\n\n    function changeRoomPrice(uint newPrice) public {\n        require(msg.sender == owner, \"Only the owner can change room price\");\n        roomPrice = newPrice;\n    }\n\n    function destroy() public {\n        require(msg.sender == owner, \"Only the owner can destroy the contract\");\n        selfdestruct(owner);\n\n    }\n}\n",
  "sourcePath": "C:\\Users\\rainb\\Desktop\\hotel-booking-main\\contracts\\Conference.sol",
  "compiler": {
    "name": "solc",
    "version": "0.5.16+commit.9c3226ce.Emscripten.clang"
  },
  "schemaVersion": "3.4.16",
  "updatedAt": "2025-04-15T02:29:39.362Z",
  "networkType": "ethereum",
  "devdoc": {
    "methods": {}
  },
  "userdoc": {
    "methods": {}
  }
}